{
  "transactions": [
    {
      "hash": "0x2aff4730553b924ead82a798aa709ea753ea5ca7d68a4241d50e2da845cf8c75",
      "transactionType": "CALL",
      "contractName": null,
      "contractAddress": "0x288b1b4b0c9733675f959254426c1de96208a235",
      "function": "mintNft(string)",
      "arguments": [
        "ipfs://QmVKvfbUyHrzPUBVQQinQ922sQZ7vszoddM9EA3jPC93xg/?filename=metadata.json"
      ],
      "transaction": {
        "from": "0x2b1a75291ee4cfa605d4ebd136e973ff61ca391f",
        "to": "0x288b1b4b0c9733675f959254426c1de96208a235",
        "gas": "0x3d57e",
        "value": "0x0",
        "input": "0xda86f4a90000000000000000000000000000000000000000000000000000000000000020000000000000000000000000000000000000000000000000000000000000004d697066733a2f2f516d564b766662557948727a505542565151696e5139323273515a3776737a6f64644d394541336a5043393378672f3f66696c656e616d653d6d657461646174612e6a736f6e00000000000000000000000000000000000000",
        "nonce": "0x20",
        "chainId": "0xaa36a7"
      },
      "additionalContracts": [],
      "isFixedGasLimit": false
    }
  ],
  "receipts": [
    {
      "status": "0x1",
      "cumulativeGasUsed": "0x9bc581",
      "logs": [
        {
          "address": "0x288b1b4b0c9733675f959254426c1de96208a235",
          "topics": [
            "0xddf252ad1be2c89b69c2b068fc378daa952ba7f163c4a11628f55a4df523b3ef",
            "0x0000000000000000000000000000000000000000000000000000000000000000",
            "0x0000000000000000000000002b1a75291ee4cfa605d4ebd136e973ff61ca391f",
            "0x0000000000000000000000000000000000000000000000000000000000000000"
          ],
          "data": "0x",
          "blockHash": "0x2cd670ef43801d5852c21dc426108a423ad88cb3669f1da803ece390999705be",
          "blockNumber": "0x6993e0",
          "transactionHash": "0x2aff4730553b924ead82a798aa709ea753ea5ca7d68a4241d50e2da845cf8c75",
          "transactionIndex": "0x51",
          "logIndex": "0x6b",
          "removed": false
        }
      ],
      "logsBloom": "0x00000000000000000000000000000000000000000000000000000000000000000000000000000000000000000000000000000000000000000000000000000000000000000000000000000008000000000000000000080000000000000000000000000000020000000000000000000800000000000000000000000010000000000000000000000000000080000000000000000000000000000000000000000000008000080000000000000000000000000000000000020000000000000000000000000002000000000000000000000002000000000000000000000000000020000000000000000000000000000000000000000000000000000000000000000000",
      "type": "0x2",
      "transactionHash": "0x2aff4730553b924ead82a798aa709ea753ea5ca7d68a4241d50e2da845cf8c75",
      "transactionIndex": "0x51",
      "blockHash": "0x2cd670ef43801d5852c21dc426108a423ad88cb3669f1da803ece390999705be",
      "blockNumber": "0x6993e0",
      "gasUsed": "0x2c696",
      "effectiveGasPrice": "0xf8197b",
      "from": "0x2b1a75291ee4cfa605d4ebd136e973ff61ca391f",
      "to": "0x288b1b4b0c9733675f959254426c1de96208a235",
      "contractAddress": null
    }
  ],
  "libraries": [],
  "pending": [],
  "returns": {},
  "timestamp": 1729552329,
  "chain": 11155111,
  "commit": "e65b83e"
}