{
  "transactions": [
    {
      "hash": "0x38daef445c15b2d1d60c3d1f0051e0a93a1589dfd6007f6220a6a6590aeb08d3",
      "transactionType": "CALL",
      "contractName": null,
      "contractAddress": "0x53293ad28476485f4001b1e0f98b85b41b9ea978",
      "function": "flipMood(uint256)",
      "arguments": [
        "0"
      ],
      "transaction": {
        "from": "0x2b1a75291ee4cfa605d4ebd136e973ff61ca391f",
        "to": "0x53293ad28476485f4001b1e0f98b85b41b9ea978",
        "gas": "0x106bc",
        "value": "0x0",
        "input": "0xc1a147a00000000000000000000000000000000000000000000000000000000000000000",
        "nonce": "0x25",
        "chainId": "0xaa36a7"
      },
      "additionalContracts": [],
      "isFixedGasLimit": false
    }
  ],
  "receipts": [
    {
      "status": "0x1",
      "cumulativeGasUsed": "0x56df51",
      "logs": [],
      "logsBloom": "0x00000000000000000000000000000000000000000000000000000000000000000000000000000000000000000000000000000000000000000000000000000000000000000000000000000000000000000000000000000000000000000000000000000000000000000000000000000000000000000000000000000000000000000000000000000000000000000000000000000000000000000000000000000000000000000000000000000000000000000000000000000000000000000000000000000000000000000000000000000000000000000000000000000000000000000000000000000000000000000000000000000000000000000000000000000000",
      "type": "0x2",
      "transactionHash": "0x38daef445c15b2d1d60c3d1f0051e0a93a1589dfd6007f6220a6a6590aeb08d3",
      "transactionIndex": "0x36",
      "blockHash": "0x1f7f7aed24cb2b963e18d0f15cc94ceb3c63f42e92855d2318821199f15f1457",
      "blockNumber": "0x6a3149",
      "gasUsed": "0xbe38",
      "effectiveGasPrice": "0x217ba7bd",
      "from": "0x2b1a75291ee4cfa605d4ebd136e973ff61ca391f",
      "to": "0x53293ad28476485f4001b1e0f98b85b41b9ea978",
      "contractAddress": null
    }
  ],
  "libraries": [],
  "pending": [],
  "returns": {},
  "timestamp": 1730072954,
  "chain": 11155111,
  "commit": "9273f9e"
}