{
  "transactions": [
    {
      "hash": "0xd050b11b4cfe49129a7732ce3adb460199d1f8b69b38de9bf7a81520b14b9335",
      "transactionType": "CALL",
      "contractName": null,
      "contractAddress": "0xfdd2d2d24ef3fcfea0ce3a5d0a62e2da5a99343a",
      "function": "mintNft(string)",
      "arguments": [
        "ipfs://QmVKvfbUyHrzPUBVQQinQ922sQZ7vszoddM9EA3jPC93xg/?filename=metadata.json"
      ],
      "transaction": {
        "from": "0x2b1a75291ee4cfa605d4ebd136e973ff61ca391f",
        "to": "0xfdd2d2d24ef3fcfea0ce3a5d0a62e2da5a99343a",
        "gas": "0x3d57e",
        "value": "0x0",
        "input": "0xda86f4a90000000000000000000000000000000000000000000000000000000000000020000000000000000000000000000000000000000000000000000000000000004d697066733a2f2f516d564b766662557948727a505542565151696e5139323273515a3776737a6f64644d394541336a5043393378672f3f66696c656e616d653d6d657461646174612e6a736f6e00000000000000000000000000000000000000",
        "nonce": "0x22",
        "chainId": "0xaa36a7"
      },
      "additionalContracts": [],
      "isFixedGasLimit": false
    }
  ],
  "receipts": [
    {
      "status": "0x1",
      "cumulativeGasUsed": "0xbfc799",
      "logs": [
        {
          "address": "0xfdd2d2d24ef3fcfea0ce3a5d0a62e2da5a99343a",
          "topics": [
            "0xddf252ad1be2c89b69c2b068fc378daa952ba7f163c4a11628f55a4df523b3ef",
            "0x0000000000000000000000000000000000000000000000000000000000000000",
            "0x0000000000000000000000002b1a75291ee4cfa605d4ebd136e973ff61ca391f",
            "0x0000000000000000000000000000000000000000000000000000000000000000"
          ],
          "data": "0x",
          "blockHash": "0x5dcb34ae4c27a85926915e10629b368313720b559da061d4b704d71d8f93b65d",
          "blockNumber": "0x6a2f52",
          "transactionHash": "0xd050b11b4cfe49129a7732ce3adb460199d1f8b69b38de9bf7a81520b14b9335",
          "transactionIndex": "0x45",
          "logIndex": "0x71",
          "removed": false
        }
      ],
      "logsBloom": "0x00000000000000000000000000000000000000000000000000000000400000000000000000000040000000000000000000000000000000000000000000000000000000000000000000000008000000000000000000080000000000000000000000000000020000000000000000000800000000000000000000000011000000000000000000000000000080000000000000000000000000000000000000000000000000080000000000000000000000000000000000000000000000000000000000000002000000000000000000000000000000000000000000000000000020000000000000000000000000000000000000000000000000000000000000000000",
      "type": "0x2",
      "transactionHash": "0xd050b11b4cfe49129a7732ce3adb460199d1f8b69b38de9bf7a81520b14b9335",
      "transactionIndex": "0x45",
      "blockHash": "0x5dcb34ae4c27a85926915e10629b368313720b559da061d4b704d71d8f93b65d",
      "blockNumber": "0x6a2f52",
      "gasUsed": "0x2c696",
      "effectiveGasPrice": "0x30381c",
      "from": "0x2b1a75291ee4cfa605d4ebd136e973ff61ca391f",
      "to": "0xfdd2d2d24ef3fcfea0ce3a5d0a62e2da5a99343a",
      "contractAddress": null
    }
  ],
  "libraries": [],
  "pending": [],
  "returns": {},
  "timestamp": 1730066413,
  "chain": 11155111,
  "commit": "b69de3b"
}